:100000000C9485020C94D60A0C94030B0C94AD024C
:100010000C94AD020C94AD020C94AD020C94AD02A4
:100020000C94AD020C94AD020C94AD020C94AD0294
:100030000C94AD020C94AD020C94AD020C94AD0284
:100040000C94300B0C94AD020C94D90D0C940B0E47
:100050000C94AD020C94AD020C94AD020C94AD0264
:100060000C94AD020C94AD02480570042005A10566
:10007000A10553051B0597056604970563059205C1
:10008000970597059A0497057E05A105480527055C
:1000900097058F05A105850597056805205A7A7A89
:1000A0002E2E2E0A007465737420003E20002062FC
:1000B0000A00202D3E2000202D3E2061636B0A00A7
:1000C00020494920004153432000200020002047C0
:1000D00000203F004F4B0043757272656E742063C1
:1000E0006F6E66696775726174696F6E3A0A005B5C
:1000F0005246313264656D6F2E31325D000A4176B1
:1001000061696C61626C6520636F6D6D616E6473B3
:100110003A0A20203C6E6E3E206920202020202DAF
:1001200020736574206E6F646520494420287374C1
:10013000616E64617264206E6F646520696473200F
:1001400061726520312E2E3330290A20203C6E3E0C
:1001500020622020202020202D20736574204D480F
:100160007A2062616E64202834203D203433332CA1
:100170002038203D203836382C2039203D20393198
:1001800035290A20203C6E6E6E6E3E206F202020A6
:100190002D206368616E6765206672657175656E96
:1001A0006379206F66667365742077697468696E19
:1001B000207468652062616E6420286465666175DC
:1001C0006C742031363030290A2020202020202055
:1001D000202020202020202039362E2E3339303385
:1001E000206973207468652072616E67652073757D
:1001F00070706F7274656420627920746865205233
:10020000464D3132420A20203C6E6E6E3E20672001
:100210002020202D20736574206E6574776F726BBB
:100220002067726F7570202852464D3132206F6EF4
:100230006C7920616C6C6F7773203231322C2030F6
:10024000203D20616E79290A20203C6E3E206320EB
:1002500020202020202D2073657420636F6C6C6536
:100260006374206D6F64652028616476616E6365D8
:10027000642C206E6F726D616C6C792030290A20BD
:100280002074202020202020202020202D20627279
:100290006F616463617374206D61782D73697A6531
:1002A0002074657374207061636B65742C207265B3
:1002B00071756573742061636B0A20202E2E2E2CBD
:1002C0003C6E6E3E2061202D2073656E642064615B
:1002D0007461207061636B657420746F206E6F644D
:1002E00065203C6E6E3E2C207265717565737420BE
:1002F00061636B0A20202E2E2E2C3C6E6E3E2073E6
:10030000202D2073656E64206461746120706163C8
:100310006B657420746F206E6F6465203C6E6E3E5A
:100320002C206E6F2061636B0A20203C6E3E207192
:100330002020202020202D20736574207175696590
:1003400074206D6F6465202831203D20646F6E2716
:1003500074207265706F72742062616420706163D2
:100360006B657473290A20203C6E3E207820202083
:100370002020202D20736574207265706F7274695F
:100380006E6720666F726D61742028303A20646554
:1003900063696D616C2C20313A206865782C2032BD
:1003A0003A206865782B6173636969290A202031D6
:1003B0003233207A2020202020202D20746F746179
:1003C0006C20706F77657220646F776E2C206E657D
:1003D000656473206120726573657420746F207387
:1003E0007461727420757020616761696E0A52656C
:1003F0006D6F746520636F6E74726F6C20636F6DC8
:100400006D616E64733A0A20203C686368693E2C13
:100410003C68636C6F3E2C3C616464723E2C3C63B0
:100420006D643E206620202020202D20465332304F
:1004300020636F6D6D616E642028383638204D481A
:100440007A290A20203C616464723E2C3C64657603
:100450003E2C3C6F6E3E206B202020202020202050
:100460002020202020202D204B414B5520636F6DF4
:100470006D616E642028343333204D487A290A0098
:10048000636F6E6669672073617665206661696C6B
:1004900065640A00010402000302048A050506C31C
:1004A0000B2019421E2C25802E882F2D3700380056
:1004B0003C8F3D106F20000000000800020100008A
:1004C00003040700000000000000000102040810FF
:1004D00020408001020408102001020408102004BA
:1004E00004040404040404020202020202030303DB
:1004F00003030300000000250028002B000000007B
:1005000000240027002A00003B0E11241FBECFEF5D
:10051000D8E0DEBFCDBF11E0A0E0B1E0E4EEF0E254
:1005200002C005900D92AA33B107D9F722E0AAE3E1
:10053000B1E001C01D92A939B207E1F715E0CAE0A8
:10054000D5E004C02297FE010E941F10C830D107D9
:10055000C9F70E947F0E0C9470100C940000682F55
:100560008CEF91E00C94CE0E1F93CF93DF93EC01B0
:10057000FE011491112351F01A3019F48DE00E94FC
:10058000AF02812F0E94AF022196F2CFDF91CF916F
:100590001F9108958F7060E3680F6A3314F067E36A
:1005A000680F8CEF91E00C94CE0ECF93C82F61E0D2
:1005B00089E00E94290C6C2F89E0CF910C94620C89
:1005C000CF93C82F90918A019370682F70E061F0EB
:1005D000CB0124E0959587952A95E1F70E94CA0200
:1005E0008C2FCF910C94CA024AE050E08CEF91E03E
:1005F000CF910C94CC0F0F931F93CF93DF9381E097
:1006000080938901E7E8F1E08FEF9FEF2191822746
:10061000282F22952827022E269526952025022E62
:10062000269520252770082E892F26950794279533
:10063000902D8227069427959025822721E0E53981
:10064000F20721F7909396018093950160918701BD
:1006500080E290E00E94521007E811E0C0E2D0E092
:10066000F80161918F01CE010E9452102196C03392
:10067000D105B1F70E94F009882331F0DF91CF91C5
:100680001F910F910C94DD0680E894E0DF91CF91EB
:100690001F910F910C94B4020F931F93CF93DF938C
:1006A00081E00E94D50264E670E080E090E00E9464
:1006B0009D0B26E040E051EE60E070E08CEF91E0B1
:1006C0000E947D0D8CEF91E00E94D50E8FEE90E0A0
:1006D0000E94B4020E94F009882379F007E811E033
:1006E000C0E2D0E0CE010E944410D8018D938D016C
:1006F0002196C033D105B1F71CC080E1E7E8F1E0F5
:10070000DF011D928A95E9F781E88093870182EDE8
:100710008093880180E496E090938C0180938B0114
:1007200080918A01886080938A010E94FB020E9466
:10073000F0090E94DD068DEF90E00E94B40287ED83
:1007400090E00E94B4020E94DD0668EE73E080E053
:1007500090E00E949D0B80E0DF91CF911F910F915F
:100760000C94D502CF92DF92EF92FF920F931F93DA
:10077000CF93DF938CEF91E00E94980C892B09F4C2
:10078000E6C18CEF91E00E94B30CC82F80ED8C0F76
:100790008A30A8F440918401509185018AE0849FB9
:1007A0009001859F300D1124205331092C0F311DEC
:1007B000C7FD3A953093850120938401C8C1CC329E
:1007C00081F4E0913D01E63408F0BDC181E08E0F77
:1007D00080933D01F0E0E25CFE4F809184018083D4
:1007E000B2C18FE98C0F8A3148F58BEA90E00E9404
:1007F000B402D0E080913D01D81788F4ED2FF0E0ED
:10080000E25CFE4F608170E04AE050E08CEF91E0E6
:100810000E94CC0F8CE20E94AF02DF5FEBCF6091B1
:100820008401709185014AE050E08CEF91E00E94D4
:10083000CC0F6C2F8CEF91E00E94FB0ECE3391F524
:10084000E0913D0181E08E0F80933D01F0E0E25C9C
:10085000FE4F80918401808320918B0130918C0127
:1008600040913F0180913E01843031F0883031F079
:10087000893031F463E005C061E003C062E001C08B
:1008800060E0809140010E94970940913D014450F1
:1008900062E471E0809141010E94620A82E00E945C
:1008A000810A0EC1C1320CF44CC14C2F552747FDB3
:1008B0005095652F752FFA01E156F109EA31F105DE
:1008C00008F035C1EC5CFF4F0C941D108091840141
:1008D0008F7190918701907E890F8093870127C047
:1008E00080918401843031F0883031F0893031F4E6
:1008F00023E005C021E003C022E001C020E0822FF8
:1009000090E09093850180938401892B09F419C1AB
:10091000809187018F7340E4249F800D1124809380
:10092000870180E496E090938C0180938B010E9474
:10093000FB0207C180918401909185019C012056A2
:100940003109203E3E4030F490938C0180938B011E
:100950000E94FB02E0918701F0E056E0F595E795F3
:100960005A95E1F7CF0101978330910528F4DC0116
:10097000A55FBE4FAC9101C0A0E0B0E020EA36E830
:1009800041E050E00E9439106B017C0129E130E028
:10099000DF010E9432109B01AC01A0918B01B0914C
:1009A0008C010E943910C60ED71EE81EF91EC70121
:1009B000B60120E137E240E050E00E94FB0F8901E0
:1009C0009A016B017C014AE050E0B8018CEF91E0A4
:1009D0000E94CC0F8EE20E94AF02C60168EE73E067
:1009E0000E94D30F80E3860F0E94AF02C60164E627
:1009F00070E00E94D30FCB01CAE0D0E0BE010E949C
:100A0000D30F805D0E94AF02C601BE010E94D30FCA
:100A1000182FCB01BE010E94D30F805D0E94AF0250
:100A200080E3810F0E94AF0266E071E08CEF91E0FD
:100A30000E94E90E86C0809184018093880177CF5F
:100A400080918A019091840190FB82F965C081E6D2
:100A50008093860182E480933C0110923B012091B7
:100A60003A01EEE3F1E080E0982F920F91938F5FCF
:100A70008234D1F785EA90E00E94B40280913A0175
:100A80000E94E00280913A018F5F80933A0159C041
:100A9000C093860180913D0180933C018091840147
:100AA00080933B014EC020E436E040E062E080E00D
:100AB0000E94970981E00E94D50280E00E94D50241
:100AC0000E94F0093EC020E436E040E061E0EFCF54
:100AD00080918401909185018B37910591F58CE986
:100AE00090E00E94B4028CEF91E00E94F60C80E04E
:100AF0000E94A00AF8940E94C00623C080918A0137
:100B00009091840190FB83F907C0909184019370C8
:100B100080918A018C7F892B80938A0108CF8FEE88
:100B200090E00BC0809184010E94D5020AC08DEF35
:100B300090E00E94B40287ED90E00E94B4020E940F
:100B4000DD0610923D0110928501109284010E94F1
:100B50004C0A882309F4CAC0F090A7018091ED01E6
:100B60009091EE01892B41F481E00E94D50284ED41
:100B700090E00E94B4020DC080918A0183FDF7C00D
:100B800081ED90E00E94B40284E18F1510F444E1FD
:100B9000F42E80918A01837019F088E50E94AF02DB
:100BA00080918801811108C08EEC90E00E94B4020F
:100BB0008091A5010E94E00280E20E94AF02809134
:100BC000A6010E94E00208EA11E0E801E02E8C2F65
:100BD000801B8F1558F480918A01837019F480E28C
:100BE0000E94AF0289910E94E002F1CF8CEC90E06C
:100BF0000E94B40280918A01837029F080919B0148
:100C00000E94E0020BC060919B0170E075956795B2
:100C10004AE050E08CEF91E00E94B00F8AEC90E047
:100C20000E94B4028CEF91E00E94D50E80918A015F
:100C3000837090E002978CF185EC90E00E94B40202
:100C400080918801811104C080EC90E00E94B40280
:100C50008091A60186FF02C08EE301C08CE30E9452
:100C6000AF028091A6018F71805C0E94AF02C8EA3A
:100C7000D1E08C2F8E198F1560F480E20E94AF02B4
:100C8000899190EE980F9F3508F08EE20E94AF0296
:100C9000F0CF8CEF91E00E94D50E8091ED01909104
:100CA000EE01892B19F581E00E94D5028091A60101
:100CB00085FF19C08091A60187FD15C080918A012A
:100CC00082FD11C087EB90E00E94B4028091A601E2
:100CD00086FD49C08091A6018F71806C40E060E084
:100CE00070E00E94600A80E00E94D5028091860137
:100CF000882371F10E945E0A882351F181E00E94ED
:100D0000D50282EB90E00E94B40260913C0170E059
:100D10004AE050E08CEF91E00E94CC0F8EEA90E028
:100D20000E94B402809186018136F9F080E09091B2
:100D30003B01992311F09064892B40913C016EE3B3
:100D400071E00E94600A1092860180E00E94D50244
:100D500080E0DF91CF911F910F91FF90EF90DF9096
:100D6000CF900C94D50280E8B9CF80E2E0CFDF913C
:100D7000CF911F910F91FF90EF90DF90CF9008954A
:100D8000EAE7F0E0908180818F77808383B7817F6D
:100D9000846083BFF89483B7816083BF85B7806622
:100DA00085BF85B78F79806485BF7894889583B730
:100DB0008E7F83BF90937A000895CF92DF92FF9247
:100DC0000F931F93CF93DF931F92CDB7DEB780E2CF
:100DD00090E00E944410082F83E290E00E944410AB
:100DE000182F84E290E00E944C106C0160E28CEFBE
:100DF00091E00E94CE0E202F2F7160E4620F8CEFE5
:100E000091E029830E94CE0E6EE071E08CEF91E0BC
:100E10000E94CC0E2981622F70E04AE050E08CEFF6
:100E200091E00E94B00F812F8470F82E12FF05C050
:100E30006AE28CEF91E00E94CE0E61E171E08CEFEE
:100E400091E00E94CC0E81E290E00E9444104AE0C2
:100E500050E0682F8CEF91E00E94C50F64E171E0D3
:100E60008CEF91E00E94CC0E802F8295869586951E
:100E70008370813039F0823041F0833049F463E986
:100E800073E008C061EB71E005C064E673E002C086
:100E900060E070E04AE050E08CEF91E00E94B00F1B
:100EA00066E071E08CEF91E00E94CC0EFF2031F003
:100EB00068E171E08CEF91E00E94CC0EE0E4CE1688
:100EC000E6E0DE0669F06CE171E08CEF91E00E94F3
:100ED000CC0E4AE050E0B6018CEF91E00E94CC0FBE
:100EE00013FF06C06FE171E08CEF91E00E94CC0E21
:100EF000137071F063E271E08CEF91E00E94CC0E10
:100F0000612F70E04AE050E08CEF91E00E94B00F5A
:100F10008CEF91E00F90DF91CF911F910F91FF9097
:100F2000DF90CF900C94D50E8627682F62956827A6
:100F3000062E669566956025062E66956025677077
:100F4000082E892F669507946795902D862706941D
:100F50006795902586270895E8982A988EBD0DB448
:100F600007FEFDCF8EB56EBD0DB407FEFDCF8EB56D
:100F70002A9AE89A089560E00C94AC0788E20E94EF
:100F8000BB07807521F080E00E94BB07F7CF089572
:100F9000CF93C82F81E00E94BB07682F637E6C2B24
:100FA00081E8CF910C94AC0722E0660F771F881F71
:100FB000991F2A95D1F729E03DE340E050E00E94D7
:100FC000FB0F66E0220F331F441F551F6A95D1F7B0
:100FD0002093A0013093A1014093A2015093A3015B
:100FE000089580919901853021F480919A01882398
:100FF00011F080E0089584E0809399010E94C80771
:1010000081E008959091990181E094300CF080E0A6
:101010000895882311F080E001C084E00E94C80791
:1010200084E0809399010895CF93DF932A9A229ABE
:101030002A9A84B18C6284B980E58CBD8DB58160BB
:101040008DBD6AEA8FEA0E94AC078FE20E94BB075F
:101050008A3AB9F765E58FEA0E94AC078FE20E94F1
:10106000BB078535B9F7C4E9D4E0FE018491882334
:1010700039F03196649180680E94AC072296F5CFD2
:1010800060919F0180EB0E94AC078091A00190913C
:10109000A101A091A201B091A301BD0188279927C8
:1010A00087E80E94AC078091A0019091A101A091D6
:1010B000A201B091A301692F7A2F8B2F992788E87D
:1010C0000E94AC076091A00189E80E94AC0784E00F
:1010D00080939901DF91CF910895CF93DF93EC0135
:1010E00080919901843019F08530E1F045C010926B
:1010F000A70110929A0160919F018FEF9FEF0E94CC
:10110000940790939D0180939C01D0939801C09384
:10111000970185E0809399010E94BE0780E10E94BB
:10112000C8072AC08091A70120919A0190E00496F7
:1011300030E08217930724F080919A018834E0F020
:1011400084E0809399010E94C8078091A7018334AD
:1011500030F081E090E090939D0180939C0180911C
:10116000A60186FF0CC090919E019F3141F08091B5
:10117000A6018F71891719F08FEF9FEF04C080913E
:101180009C0190919D01DF91CF910895CF93409361
:10119000A701FB0120E030E050E02417350744F4BC
:1011A000D901A855BE4F91919C932F5F3F4FF5CF2A
:1011B00086FD04C0807E90919E01890F8093A601D8
:1011C00060919F018FEF9FEF0E9494079093EE0133
:1011D0008093ED019091A7018EEF891B8093990177
:1011E0000E94BE078CE00E94C80760E085EA0E946A
:1011F000AC07809199018330DCF588E20E94BB073F
:1012000087FDF7CF8091990187FF1BC09091A701BF
:1012100080919901E0919701F0919801E90FF11DFA
:10122000E80FF11D87FDFA95C3816C2F80919C0119
:1012300090919D010E94940790939D0180939C0141
:101240000DC080919901882329F0813031F4C0913B
:101250009D0104C0C0919C0101C0CAEA6C2F80E8C6
:101260000E94AC07809199018F5F80939901C1CF53
:10127000CF91089580919901853009F049C084E2A9
:101280000E94BB0780939B01789488E20E94BB0771
:101290008075D9F380919A0181110FC0E091970177
:1012A000F091980180919A0191E0980F90939A01A2
:1012B00090919F01E80FF11D908380E00E94BB0791
:1012C000E0919701F091980190919A0121E0290F06
:1012D00020939A01E90FF11D8083682F80919C0172
:1012E00090919D010E94940790939D0180939C0191
:1012F0008091A70120919A0190E0049630E0821736
:101300009307A4F080919A01883408F4BECF089521
:1013100088E20E94BB0783FF09C084E080939901A3
:101320000E94C80760E885EA0C94AC070895CF9244
:10133000DF92EF92FF921F93CF93DF93C82F162F68
:10134000D42FF901AFEFA60FA33028F4B0E0AA5DC7
:10135000BE4FAC9101C0A0E0B0E020E836E948E91A
:1013600050E00E9439106B017C01212F30E0A4EC89
:10137000B9E00E942310DF019B01AC010E943910EB
:10138000C60ED71EE81EF91EC701B6010E94D4077B
:10139000D0939F018C2F8F7180939E0164E170E048
:1013A00080E090E00E949D0B80919E01882341F097
:1013B00043E050E06AE379E080E00E94A60A03C0BF
:1013C00080E00E94C60A0E941408C093A4018C2FDA
:1013D000DF91CF911F91FF90EF90DF90CF90089514
:1013E000EF92FF920F931F93CF93DF931F92CDB78E
:1013F000DEB700E210E0EE24EA94FE2CC8010E9461
:101400004410E8268E2D82958E25082E8695869589
:101410008025082E8695802587700E2CEF2C8695CA
:1014200007948795F02CE82606948795F024E82603
:101430000F5F1F4F0033110509F7EF2821F582E2F6
:1014400090E00E9444108130F1F480E290E00E942C
:101450004410182F81E290E00E944410482F84E24B
:1014600090E049830E944C109C01612F70E086E05F
:10147000759567958A95E1F74981812F0E949709B3
:10148000812F8F7101C080E00F90DF91CF911F916C
:101490000F91FF90EF90089585EA91E00E946D080A
:1014A0009093EE018093ED012091ED013091EE01DA
:1014B00081E02F3F3F4F09F480E008950C94F1073D
:1014C0000C94C608EF92FF921F93CF93DF931F9265
:1014D000CDB7DEB7182F7B0149830E94F107498100
:1014E000811105C049830E944C0A4981F5CFB7019B
:1014F000812F0F90DF91CF911F91FF90EF900C946F
:10150000C608CF93C82F0E9402088823B9F0CC23C5
:10151000D1F383B7817FC33021F0C23021F49CE046
:1015200003C094E001C090E0892B83BF83B7816042
:1015300083BF889583B78E7F83BFE5CFCF91089512
:1015400091E0811190E0892F0C9409088230E8F431
:10155000E82FF0E0EE0FFF1FE151FE4F7183608333
:10156000813041F0809169008C7F842B80936900E9
:10157000E89A089580916900440F551F440F551F44
:10158000837F842B80936900E99A0895823068F400
:10159000813011F0E89801C0E998E82FF0E0EE0FF3
:1015A000FF1FE151FE4F1182108208951F920F928A
:1015B0000FB60F9211242F933F934F935F936F9326
:1015C0007F938F939F93AF93BF93EF93FF938091FC
:1015D000EF019091F001892B29F0E091EF01F0915A
:1015E000F0010995FF91EF91BF91AF919F918F917C
:1015F0007F916F915F914F913F912F910F900FBE0F
:101600000F901F9018951F920F920FB60F921124F2
:101610002F933F934F935F936F937F938F939F93FA
:10162000AF93BF93EF93FF938091F1019091F201FB
:10163000892B29F0E091F101F091F2010995FF91D8
:10164000EF91BF91AF919F918F917F916F915F913A
:101650004F913F912F910F900FBE0F901F901895B3
:101660001F920F920FB60F9211242F933F938F93D7
:101670009F93AF93BF938091F4019091F501A09156
:10168000F601B091F7013091F30126E0230F2D37D9
:1016900020F40296A11DB11D05C029E8230F039671
:1016A000A11DB11D2093F3018093F4019093F501E6
:1016B000A093F601B093F7018091F8019091F901A0
:1016C000A091FA01B091FB010196A11DB11D80937B
:1016D000F8019093F901A093FA01B093FB01BF9137
:1016E000AF919F918F913F912F910F900FBE0F90CF
:1016F0001F9018953FB7F8948091F8019091F901E7
:10170000A091FA01B091FB0126B5A89B05C02F3F1F
:1017100019F00196A11DB11D3FBF6627782F892FB3
:101720009A2F620F711D811D911D43E0660F771F77
:10173000881F991F4A95D1F70895CF92DF92EF92B3
:10174000FF92CF93DF936B017C010E947A0BEB0138
:10175000C114D104E104F10489F00E94D20F0E9467
:101760007A0B6C1B7D0B683E734090F381E0C81AC6
:10177000D108E108F108C851DC4FEACFDF91CF91E1
:10178000FF90EF90DF90CF900895789484B58260B9
:1017900084BD84B5816084BD85B5826085BD85B515
:1017A000816085BDEEE6F0E0808181608083E1E8C4
:1017B000F0E01082808182608083808181608083FC
:1017C000E0E8F0E0808181608083E1EBF0E08081FF
:1017D00084608083E0EBF0E0808181608083EAE7D1
:1017E000F0E080818460808380818260808380815A
:1017F000816080838081806880831092C100089519
:10180000833081F028F4813099F08230A1F008957E
:101810008730A9F08830B9F08430D1F4809180000D
:101820008F7D03C0809180008F7780938000089522
:1018300084B58F7702C084B58F7D84BD0895809173
:10184000B0008F7703C08091B0008F7D8093B0008F
:101850000895CF93DF9390E0FC01E553FB4F249173
:10186000FC01E152FB4F8491882349F190E0880FFD
:10187000991FFC01E350FB4FA591B4918D509B4FF4
:10188000FC01C591D4919FB7611108C0F8948C9167
:10189000209582238C93888182230AC0623051F480
:1018A000F8948C91322F309583238C938881822BEE
:1018B000888304C0F8948C91822B8C939FBFDF9116
:1018C000CF9108950F931F93CF93DF931F92CDB7BE
:1018D000DEB7282F30E0F901E954FB4F8491F9017C
:1018E000E553FB4F1491F901E152FB4F04910023A2
:1018F000C9F0882321F069830E94000C6981E02FE0
:10190000F0E0EE0FFF1FED50FB4FA591B4919FB794
:10191000F8948C91611103C01095812301C0812B33
:101920008C939FBF0F90DF91CF911F910F910895DE
:10193000FC01818D228D90E0805C9F4F821B91097C
:1019400060E470E00E94E70F0895FC01918D828DA4
:10195000981731F0828DE80FF11D858D90E0089584
:101960008FEF9FEF0895FC01918D828D981761F0A4
:10197000828DDF01A80FB11D5D968C91928D9F5FC6
:101980009F73928F90E008958FEF9FEF089581E30A
:101990009EE0892B49F080E090E0892B29F00E949D
:1019A000310E81110C9400000895FC01848DDF013B
:1019B000A80FB11DA35ABF4F2C91848D90E00196C2
:1019C0008F739927848FA689B7892C93A089B189B1
:1019D0008C9180648C93938D848D981306C00288BB
:1019E000F389E02D80818F7D80830895CF93DF93ED
:1019F000EC01888D8823C9F0EA89FB89808185FD07
:101A000005C0A889B9898C9186FD0FC00FB607FC67
:101A1000F5CF808185FFF2CFA889B9898C9185FFA8
:101A2000EDCFCE010E94D50CE7CFDF91CF91089585
:101A3000CF92DF92FF920F931F93CF93DF931F926A
:101A4000CDB7DEB76C01DC015B969C915B975C9631
:101A50008C915C97981307C05096ED91FC9151972B
:101A6000808185FD32C0F601038D10E00F5F1F4FAE
:101A70000F731127F02EF601848DF81211C00FB6E6
:101A800007FCF9CFD6015096ED91FC9151978081DA
:101A900085FFF1CFC60169830E94D50C6981EBCF28
:101AA000838DE80FF11DE35AFF4F6083D6015B96EB
:101AB0000C935B975296ED91FC91539780818062D5
:101AC000808381E058968C930DC0D6015696ED9197
:101AD000FC91579760835096ED91FC9151978081CE
:101AE0008064808381E090E00F90DF91CF911F911F
:101AF0000F91FF90DF90CF900895BF92CF92DF9229
:101B0000EF92FF92CF93DF93EC016A017B01B22E3B
:101B100060E874E88EE190E0A70196010E94FB0F57
:101B20002150310941095109569547953795279517
:101B3000E889F98982E08083211580E1380798F0EF
:101B4000E889F989108260E472E48FE090E0A701EF
:101B500096010E94FB0F2150310941095109569508
:101B6000479537952795EC85FD853083EE85FF8574
:101B70002083188EEC89FD89B082EA89FB898081F7
:101B800080618083EA89FB89808188608083EA891B
:101B9000FB89808180688083EA89FB8980818F7DD1
:101BA0008083DF91CF91FF90EF90DF90CF90BF9037
:101BB00008951F920F920FB60F9211242F938F93B7
:101BC0009F93EF93FF93E0910C02F0910D028081BF
:101BD000E0911202F091130282FD12C09081809177
:101BE00015028F5F8F7320911602821751F0E091DA
:101BF0001502F0E0E450FE4F958F8093150201C06E
:101C00008081FF91EF919F918F912F910F900FBE47
:101C10000F901F9018951F920F920FB60F921124DC
:101C20002F933F934F935F936F937F938F939F93E4
:101C3000AF93BF93EF93FF938CEF91E00E94D50C8D
:101C4000FF91EF91BF91AF919F918F917F916F9194
:101C50005F914F913F912F910F900FBE0F901F906A
:101C600018958CEF91E00E94980C21E0892B09F4E3
:101C700020E0822F08951092FF011092FE0188EE5D
:101C800093E0A0E0B0E08093000290930102A09363
:101C90000202B09303028DE291E09093FD018093E4
:101CA000FC0185EC90E0909309028093080284EC9B
:101CB00090E090930B0280930A0280EC90E0909366
:101CC0000D0280930C0281EC90E090930F028093C0
:101CD0000E0282EC90E0909311028093100286EC49
:101CE00090E09093130280931202109215021092CA
:101CF00016021092170210921802089508950E9479
:101D0000C50B0E947E0E0E944C03C7ECDCE00E94D3
:101D1000B2032097E1F30E94C70CF9CFCF92DF9274
:101D2000EF92FF920F931F93CF93DF936C017A0191
:101D3000EB01E60EF71E00E010E0CE15DF0561F0C6
:101D40006991D601ED91FC910190F081E02DC601E1
:101D50000995080F191FF1CFC801DF91CF911F918D
:101D60000F91FF90EF90DF90CF900895611571056E
:101D700081F0DB010D900020E9F7AD0141505109E0
:101D8000461B570BDC01ED91FC910280F381E02DA5
:101D9000099480E090E008950C94B60EDC01ED917A
:101DA000FC910190F081E02D09940F931F93CF9344
:101DB000DF93EC016DE00E94CE0E8C016AE0CE0153
:101DC0000E94CE0E800F911FDF91CF911F910F9136
:101DD00008950F931F93CF93DF93EC010E94B60EEB
:101DE0008C01CE010E94D50E800F911FDF91CF9103
:101DF0001F910F9108950F931F93CF93DF93EC01E1
:101E00000E94CE0E8C01CE010E94D50E800F911F34
:101E1000DF91CF911F910F9108958F929F92AF9272
:101E2000BF92CF92DF92EF92FF920F931F93CF93C7
:101E3000DF93CDB7DEB7A1970FB6F894DEBF0FBE24
:101E4000CDBF7C01C42EE52FCB01D22E19A221E0FB
:101E50002D1510F02AE0D22E8E010F5D1F4F8D2C14
:101E6000912CA12CB12C6C2D7E2FA50194010E94E8
:101E7000FB0F8C2DD29E80191124015011098A303C
:101E800014F4805D01C0895CF8018083211531055F
:101E90004105510521F0C22EE32FCA01E4CFB8015C
:101EA000C7010E94B60EA1960FB6F894DEBF0FBE12
:101EB000CDBFDF91CF911F910F91FF90EF90DF90F9
:101EC000CF90BF90AF909F908F900895CF92DF9268
:101ED000EF92FF920F931F93CF93DF93EC016A0170
:101EE0007B012115310579F4E881F9810190F081B8
:101EF000E02D642FDF91CF911F910F91FF90EF9014
:101F0000DF90CF9009942A303105E9F477FF1AC0A9
:101F10006DE20E94CE0E8C0144275527BA014C1960
:101F20005D096E097F092AE0CE010E940D0F800F26
:101F3000911FDF91CF911F910F91FF90EF90DF9054
:101F4000CF9008952AE0B701A601CE01DF91CF918D
:101F50001F910F91FF90EF90DF90CF900C940D0F99
:101F60009A01AB01662757FD6095762F0C94660F9A
:101F70002115310541F4DC01ED91FC910190F081D6
:101F8000E02D642F09940C940D0F9A01462F50E018
:101F900060E070E00C94B80F9A01AB0160E070E073
:101FA0000C94B80F0895AA1BBB1B51E107C0AA1FD0
:101FB000BB1FA617B70710F0A61BB70B881F991FEA
:101FC0005A95A9F780959095BC01CD01089597FB8E
:101FD000072E16F4009407D077FD09D00E94D30F86
:101FE00007FC05D03EF4909581959F4F089570951C
:101FF00061957F4F0895A1E21A2EAA1BBB1BFD011C
:102000000DC0AA1FBB1FEE1FFF1FA217B307E407D7
:10201000F50720F0A21BB30BE40BF50B661F771F2F
:10202000881F991F1A9469F760957095809590950F
:102030009B01AC01BD01CF010895EE0FFF1F05907C
:10204000F491E02D0994A29FB001B39FC001A39F1A
:10205000700D811D1124911DB29F700D811D1124E1
:10206000911D08950E942310B7FF0895821B930BC2
:1020700008950E942310A59F900DB49F900DA49FDA
:10208000800D911D11240895F999FECF92BD81BD57
:10209000F89A992780B50895A8E1B0E042E050E0B1
:1020A0000C946210262FF999FECF1FBA92BD81BD04
:1020B00020BD0FB6F894FA9AF99A0FBE01960895CA
:1020C000DC01CB01FC01F999FECF06C0F2BDE1BDF8
:1020D000F89A319600B40D9241505040B8F70895E7
:0420E000F894FFCFA2
:1020E400000099028000204D487A002B565A20693E
:1020F400002067002040200020633100206F002072
:102104007131002078002B565A00000000180D8E03
:0A2114000E980CB30CA50CF60C009D
:00000001FF
